:020000040000fa
:080000000002040000000000f2
:020000040000fa
:040008000a030000e7
:020000040000fa
:04000c000a030000e3
:020000040000fa
:040010000a030000df
:020000040000fa
:040014000a030000db
:020000040000fa
:040018000a030000d7
:020000040000fa
:04001c000a030000d3
:020000040000fa
:040020000a030000cf
:020000040000fa
:040024000a030000cb
:020000040000fa
:040028000a030000c7
:020000040000fa
:04002c000a030000c3
:020000040000fa
:040030000a030000bf
:020000040000fa
:04003400d0020000f6
:020000040000fa
:040038000a030000b7
:020000040000fa
:04003c000a030000b3
:020000040000fa
:040040000a030000af
:020000040000fa
:040044000a030000ab
:020000040000fa
:040048000a030000a7
:020000040000fa
:04004c000a030000a3
:020000040000fa
:040050000a0300009f
:020000040000fa
:040054000a0300009b
:020000040000fa
:040058000a03000097
:020000040000fa
:04005c000a03000093
:020000040000fa
:040060000a0300008f
:020000040000fa
:040064000a0300008b
:020000040000fa
:040068000a03000087
:020000040000fa
:04006c000a03000083
:020000040000fa
:040070000a0300007f
:020000040000fa
:040074000a0300007b
:020000040000fa
:040078000a03000077
:020000040000fa
:04007c000a03000073
:020000040000fa
:040080000a0300006f
:020000040000fa
:040084000a0300006b
:020000040000fa
:040088000a03000067
:020000040000fa
:04008c000a03000063
:020000040000fa
:040090000a0300005f
:020000040000fa
:040094000a0300005b
:020000040000fa
:040098000a03000057
:020000040000fa
:04009c000a03000053
:020000040000fa
:0400a0000a0300004f
:020000040000fa
:0400a4000a0300004b
:020000040000fa
:0400a8000a03000047
:020000040000fa
:0400ac000a03000043
:020000040000fa
:0400b0000a0300003f
:020000040000fa
:0400b4000a0300003b
:020000040000fa
:0400b8000a03000037
:020000040000fa
:0400bc000a03000033
:020000040000fa
:0400c0000a0300002f
:020000040000fa
:0400c4000a0300002b
:020000040000fa
:0400c8000a03000027
:020000040000fa
:0400cc000a03000023
:020000040000fa
:0400d0000a0300001f
:020000040000fa
:0400d4000a0300001b
:020000040000fa
:0400d8000a03000017
:020000040000fa
:0400dc000a03000013
:020000040000fa
:0400e0000a0300000f
:020000040000fa
:0400e4000a0300000b
:020000040000fa
:0400e8000a03000007
:020000040000fa
:0400ec000a03000003
:020000040000fa
:0400f0000a030000ff
:020000040000fa
:0400f4000a030000fb
:020000040000fa
:0400f8000a030000f7
:020000040000fa
:0400fc000a030000f3
:020000040000fa
:040100000a030000ee
:020000040000fa
:040104000a030000ea
:020000040000fa
:040108000a030000e6
:020000040000fa
:04010c000a030000e2
:020000040000fa
:040110000a030000de
:020000040000fa
:040114000a030000da
:020000040000fa
:040118000a030000d6
:020000040000fa
:04011c000a030000d2
:020000040000fa
:040120000a030000ce
:020000040000fa
:040124000a030000ca
:020000040000fa
:040128000a030000c6
:020000040000fa
:04012c000a030000c2
:020000040000fa
:040130000a030000be
:020000040000fa
:040134000a030000ba
:020000040000fa
:040138000a030000b6
:020000040000fa
:04013c000a030000b2
:020000040000fa
:040140000a030000ae
:020000040000fa
:040144000a030000aa
:020000040000fa
:040208000a030000e5
:020000040000fa
:04020c000a030000e1
:020000040000fa
:040210000a030000dd
:020000040000fa
:040214000a030000d9
:020000040000fa
:040218000a030000d5
:020000040000fa
:04021c000a030000d1
:020000040000fa
:040220000a030000cd
:020000040000fa
:040224000a030000c9
:020000040000fa
:040228000a030000c5
:020000040000fa
:04022c000a030000c1
:020000040000fa
:040230000a030000bd
:020000040000fa
:04023400d0020000f4
:020000040000fa
:040238000a030000b5
:020000040000fa
:04023c000a030000b1
:020000040000fa
:040240000a030000ad
:020000040000fa
:040244000a030000a9
:020000040000fa
:040248000a030000a5
:020000040000fa
:04024c000a030000a1
:020000040000fa
:040250000a0300009d
:020000040000fa
:040254000a03000099
:020000040000fa
:040258000a03000095
:020000040000fa
:04025c000a03000091
:020000040000fa
:040260000a0300008d
:020000040000fa
:040264000a03000089
:020000040000fa
:040268000a03000085
:020000040000fa
:04026c000a03000081
:020000040000fa
:040270000a0300007d
:020000040000fa
:040274000a03000079
:020000040000fa
:040278000a03000075
:020000040000fa
:04027c000a03000071
:020000040000fa
:040280000a0300006d
:020000040000fa
:040284000a03000069
:020000040000fa
:040288000a03000065
:020000040000fa
:04028c000a03000061
:020000040000fa
:040290000a0300005d
:020000040000fa
:040294000a03000059
:020000040000fa
:040298000a03000055
:020000040000fa
:04029c000a03000051
:020000040000fa
:0402a0000a0300004d
:020000040000fa
:0402a4000a03000049
:020000040000fa
:0402a8000a03000045
:020000040000fa
:0402ac000a03000041
:020000040000fa
:0402b0000a0300003d
:020000040000fa
:0402b4000a03000039
:020000040000fa
:0402b8000a03000035
:020000040000fa
:0402bc000a03000031
:020000040000fa
:0402c0000a0300002d
:020000040000fa
:0402c4000a03000029
:020000040000fa
:0402c8000a03000025
:020000040000fa
:0402cc000a03000021
:020000040000fa
:0402d0000a0300001d
:020000040000fa
:0402d4000a03000019
:020000040000fa
:0402d8000a03000015
:020000040000fa
:0402dc000a03000011
:020000040000fa
:0402e0000a0300000d
:020000040000fa
:0402e4000a03000009
:020000040000fa
:0402e8000a03000005
:020000040000fa
:0402ec000a03000001
:020000040000fa
:0402f0000a030000fd
:020000040000fa
:0402f4000a030000f9
:020000040000fa
:0402f8000a030000f5
:020000040000fa
:0402fc000a030000f1
:020000040000fa
:040300000a030000ec
:020000040000fa
:040304000a030000e8
:020000040000fa
:040308000a030000e4
:020000040000fa
:04030c000a030000e0
:020000040000fa
:040310000a030000dc
:020000040000fa
:040314000a030000d8
:020000040000fa
:040318000a030000d4
:020000040000fa
:04031c000a030000d0
:020000040000fa
:040320000a030000cc
:020000040000fa
:040324000a030000c8
:020000040000fa
:040328000a030000c4
:020000040000fa
:04032c000a030000c0
:020000040000fa
:040330000a030000bc
:020000040000fa
:040334000a030000b8
:020000040000fa
:040338000a030000b4
:020000040000fa
:04033c000a030000b0
:020000040000fa
:040340000a030000ac
:020000040000fa
:040344000a030000a8
:020000040000fa
:100400008f8320000eff27000e01880000000000ef
:10041000000020000000e000020032000001200087
:1004200020028800140007007c0007000000e000a4
:1004300003003a00204d2000010020000200370098
:100440000000200001002000810f70000100320038
:1004500014000700000020000000e000020032004d
:100460000000020000000000be04020000000000c6
:100470000040da000000fe004440a9000000200017
:100480000000e0000300320000002000a00188000e
:100490004440a800000006008a1f78008b1f7800e7
:1004a0000000060091018800800478000000eb0045
:1004b0001a003700e284440032a0b4009905ba0063
:1004c000e284440032a0b4009906ba00e2844400f9
:1004d00032a0b4000006eb00476fde00fd07b2005b
:1004e000636ce10003003a00ebff07000000eb0043
:1004f0000a003700606ce10004003a00005deb0088
:100500008b05e900fdff3e00040037006168e10053
:10051000010032000086eb000b00070019c7ba008b
:100520001905ba000e04e00003003a000a00e000da
:10053000e0ff3a0000000600fe07b2009e018800be
:100540008a047800f5ff3700395dba008b05e900b1
:100550000c003200295dba008b05e900080032006a
:100560000c00e00003003a00e284440032a0b40032
:10057000f5ff370019ddba008b05e900faff3a00f4
:100580008904e800e184440032a0b40000000600c1
:100590008404040000000000660404000000000061
:1005a0003600f800809fbe00829fbe00849fbe0080
:1005b000869fbe003400f80000002000a0018800e3
:1005c0000000fa008460a90005e1a9002040800035
:1005d0000000e8002040880020408000e20f50002a
:1005e00002003a000428ef00310007000021ef006c
:1005f00005e1a8000080fa003400f9004f03be00b6
:100600004f02be004f01be004f00be003600f90091
:10061000004006000040da000000fe000000050077
:020000040000fa
:100620000000fa000428ef0010c6b30006e8b70087
:1006300000408000c0408800104080004041880099
:100640000080fa00000006000000fa0005e1a900a1
:100650000421a90021088000f0fc2f000080600028
:10066000200888008460a90021058000f0ff280090
:1006700080806000000025000100700020058800d7
:100680009460a8000021ef00c0122000100888002c
:1006900005e1a8000080fa00000006000000fa0052
:1006a000dfff0700e8ff07000080fa0000000600f7
:1006b0000400fa00f0008000000f7800c1fd2f0058
:1006c0001e8f400006c8bf000000fb00210620006e
:1006d000810f50002800320031062000810f5000a9
:1006e0004700320011062000810f500065003a00db
:1006f0008000eb000e80e80001087800160037004b
:100700001e007800100178000e80e80010007800cc
:1007100080004000808020000080400002087800b7
:100720000e80e800100078008000400080812000ea
:1007300000804000900078001e00780001087800da
:100740001e8fe8000e80e800100078008000e800ae
:100750000e80e800010878000e80e80010007800a4
:10076000e70f5000e6ff340006c8bf000040e80075
:1007700006e8b700430037008000eb000e80e80079
:1007800001087800160037001e007800100178007c
:100790000e80e8001000780080004000808120007a
:1007a00000804000020878000e80e8001000780009
:1007b000800040008082200000804000900078008f
:1007c0001e007800010878001e8fe8000e80e80007
:1007d000100078008000e8000e80e8000108780032
:1007e0000e80e80010007800e70f5000e6ff3400ac
:1007f00006c8bf000040e80006e8b7002100370047
:100800008000eb000e80e800010878001600370039
:100810001e007800100178000e80e80010007800bb
:1008200080004000808220000080400002087800a4
:100830000e80e800100078008000400080802000da
:1008400000804000900078001e00780001087800c9
:100850001e8fe8000e80e800100078008000e8009d
:100860000e80e800010878000e80e8001000780093
:10087000e70f5000e6ff340010c6b30006e8b700eb
:10088000000000000080fa00000006000600fa00e8
:1008900020002000000f7800410020000e80e800ba
:1008a000010878000e80e800100078009e004000eb
:1008b00064004700010878001e8fe8000e80e80001
:1008c000e400470011087800f6ff37000600fa0040
:1008d00010002000000f7800310020000e80e8009a
:1008e000010878009e0078000e80e8001000780073
:1008f0000088b90080007800640047000108780093
:100900001e8fe800f7ff37000600fa0010002000f5
:10091000000f78000e80e8001e0878000e80e800c6
:10092000100078009e004000640047000108780035
:1009300064004700100078008080d1006400470008
:10094000010878001e0fe8000e80e8001000780013
:10095000e40040000e80e80001087800efff370057
:100960000000fa0040482000104088006046200047
:10097000004088000080fa00000006000400fa0031
:10098000000f78000e80e80001087800f4ff0700ef
:1009900042ff0700bdff07000000eb000080fa00e7
:0409a000000006004d
:020000040000fa
:1009a40008080000300000000000000000080000fb
:0c09b4000800000000000000000000002f
:00000001FF
