:020000040000fa
:080000000002040000000000f2
:020000040000fa
:04000800e004000010
:020000040000fa
:04000c00e00400000c
:020000040000fa
:04001000e004000008
:020000040000fa
:04001400e004000004
:020000040000fa
:04001800e004000000
:020000040000fa
:04001c00e0040000fc
:020000040000fa
:04002000e0040000f8
:020000040000fa
:04002400e0040000f4
:020000040000fa
:04002800e0040000f0
:020000040000fa
:04002c00e0040000ec
:020000040000fa
:04003000e0040000e8
:020000040000fa
:04003400e0040000e4
:020000040000fa
:04003800e0040000e0
:020000040000fa
:04003c00e0040000dc
:020000040000fa
:04004000e0040000d8
:020000040000fa
:04004400e0040000d4
:020000040000fa
:04004800e0040000d0
:020000040000fa
:04004c00e0040000cc
:020000040000fa
:04005000e0040000c8
:020000040000fa
:04005400e0040000c4
:020000040000fa
:04005800e0040000c0
:020000040000fa
:04005c00e0040000bc
:020000040000fa
:04006000e0040000b8
:020000040000fa
:04006400e0040000b4
:020000040000fa
:04006800e0040000b0
:020000040000fa
:04006c00e0040000ac
:020000040000fa
:04007000e0040000a8
:020000040000fa
:04007400c2030000c3
:020000040000fa
:04007800e0040000a0
:020000040000fa
:04007c00e00400009c
:020000040000fa
:04008000e004000098
:020000040000fa
:04008400e004000094
:020000040000fa
:04008800e004000090
:020000040000fa
:04008c00e00400008c
:020000040000fa
:04009000e004000088
:020000040000fa
:0400940076030000ef
:020000040000fa
:04009800e004000080
:020000040000fa
:04009c00e00400007c
:020000040000fa
:0400a000c802000092
:020000040000fa
:0400a400280300002d
:020000040000fa
:0400a800e004000070
:020000040000fa
:0400ac00e00400006c
:020000040000fa
:0400b000e004000068
:020000040000fa
:0400b400e004000064
:020000040000fa
:0400b800e004000060
:020000040000fa
:0400bc00e00400005c
:020000040000fa
:0400c000e004000058
:020000040000fa
:0400c400e004000054
:020000040000fa
:0400c800e004000050
:020000040000fa
:0400cc00e00400004c
:020000040000fa
:0400d000e004000048
:020000040000fa
:0400d400e004000044
:020000040000fa
:0400d800e004000040
:020000040000fa
:0400dc00e00400003c
:020000040000fa
:0400e000e004000038
:020000040000fa
:0400e400a80300006d
:020000040000fa
:0400e800e004000030
:020000040000fa
:0400ec00e00400002c
:020000040000fa
:0400f000e004000028
:020000040000fa
:0400f400e004000024
:020000040000fa
:0400f800e004000020
:020000040000fa
:0400fc00e00400001c
:020000040000fa
:04010000e004000017
:020000040000fa
:04010400e004000013
:020000040000fa
:04010800e00400000f
:020000040000fa
:04010c00e00400000b
:020000040000fa
:04011000e004000007
:020000040000fa
:04011400e004000003
:020000040000fa
:04011800e0040000ff
:020000040000fa
:04011c00e0040000fb
:020000040000fa
:04012000e0040000f7
:020000040000fa
:04012400e0040000f3
:020000040000fa
:04012800e0040000ef
:020000040000fa
:04012c00e0040000eb
:020000040000fa
:04013000e0040000e7
:020000040000fa
:04013400e0040000e3
:020000040000fa
:04013800e0040000df
:020000040000fa
:04013c00e0040000db
:020000040000fa
:04014000e0040000d7
:020000040000fa
:04014400e0040000d3
:020000040000fa
:04020800e00400000e
:020000040000fa
:04020c00e00400000a
:020000040000fa
:04021000e004000006
:020000040000fa
:04021400e004000002
:020000040000fa
:04021800e0040000fe
:020000040000fa
:04021c00e0040000fa
:020000040000fa
:04022000e0040000f6
:020000040000fa
:04022400e0040000f2
:020000040000fa
:04022800e0040000ee
:020000040000fa
:04022c00e0040000ea
:020000040000fa
:04023000e0040000e6
:020000040000fa
:04023400e0040000e2
:020000040000fa
:04023800e0040000de
:020000040000fa
:04023c00e0040000da
:020000040000fa
:04024000e0040000d6
:020000040000fa
:04024400e0040000d2
:020000040000fa
:04024800e0040000ce
:020000040000fa
:04024c00e0040000ca
:020000040000fa
:04025000e0040000c6
:020000040000fa
:04025400e0040000c2
:020000040000fa
:04025800e0040000be
:020000040000fa
:04025c00e0040000ba
:020000040000fa
:04026000e0040000b6
:020000040000fa
:04026400e0040000b2
:020000040000fa
:04026800e0040000ae
:020000040000fa
:04026c00e0040000aa
:020000040000fa
:04027000e0040000a6
:020000040000fa
:04027400c2030000c1
:020000040000fa
:04027800e00400009e
:020000040000fa
:04027c00e00400009a
:020000040000fa
:04028000e004000096
:020000040000fa
:04028400e004000092
:020000040000fa
:04028800e00400008e
:020000040000fa
:04028c00e00400008a
:020000040000fa
:04029000e004000086
:020000040000fa
:0402940076030000ed
:020000040000fa
:04029800e00400007e
:020000040000fa
:04029c00e00400007a
:020000040000fa
:0402a000c802000090
:020000040000fa
:0402a400280300002b
:020000040000fa
:0402a800e00400006e
:020000040000fa
:0402ac00e00400006a
:020000040000fa
:0402b000e004000066
:020000040000fa
:0402b400e004000062
:020000040000fa
:0402b800e00400005e
:020000040000fa
:0402bc00e00400005a
:020000040000fa
:0402c000e004000056
:020000040000fa
:0402c400e004000052
:020000040000fa
:0402c800e00400004e
:020000040000fa
:0402cc00e00400004a
:020000040000fa
:0402d000e004000046
:020000040000fa
:0402d400e004000042
:020000040000fa
:0402d800e00400003e
:020000040000fa
:0402dc00e00400003a
:020000040000fa
:0402e000e004000036
:020000040000fa
:0402e400a80300006b
:020000040000fa
:0402e800e00400002e
:020000040000fa
:0402ec00e00400002a
:020000040000fa
:0402f000e004000026
:020000040000fa
:0402f400e004000022
:020000040000fa
:0402f800e00400001e
:020000040000fa
:0402fc00e00400001a
:020000040000fa
:04030000e004000015
:020000040000fa
:04030400e004000011
:020000040000fa
:04030800e00400000d
:020000040000fa
:04030c00e004000009
:020000040000fa
:04031000e004000005
:020000040000fa
:04031400e004000001
:020000040000fa
:04031800e0040000fd
:020000040000fa
:04031c00e0040000f9
:020000040000fa
:04032000e0040000f5
:020000040000fa
:04032400e0040000f1
:020000040000fa
:04032800e0040000ed
:020000040000fa
:04032c00e0040000e9
:020000040000fa
:04033000e0040000e5
:020000040000fa
:04033400e0040000e1
:020000040000fa
:04033800e0040000dd
:020000040000fa
:04033c00e0040000d9
:020000040000fa
:04034000e0040000d5
:020000040000fa
:04034400e0040000d1
:020000040000fa
:100400002fb120000eff27000e0188000000000021
:10041000000020000000e000020032000001200087
:100420002002880014000700670107000000e000b8
:1004300003003a0040c620000100200002003700ff
:100440000000200001002000810f70000100320038
:1004500014000700000020000000e000020032004d
:100460000000020000000000a80a020000000000d6
:100470000040da000000fe004440a9000000200017
:100480000000e0000300320000002000a00188000e
:100490004440a800000006008a1f78008b1f7800e7
:1004a0000000060091018800800478000000eb0045
:1004b0001a003700e284440032a0b4009905ba0063
:1004c000e284440032a0b4009906ba00e2844400f9
:1004d00032a0b4000006eb00476fde00fd07b2005b
:1004e000636ce10003003a00ebff07000000eb0043
:1004f0000a003700606ce10004003a00005deb0088
:100500008b05e900fdff3e00040037006168e10053
:10051000010032000086eb000b00070019c7ba008b
:100520001905ba000e04e00003003a000a00e000da
:10053000e0ff3a0000000600fe07b2009e018800be
:100540008a047800f5ff3700395dba008b05e900b1
:100550000c003200295dba008b05e900080032006a
:100560000c00e00003003a00e284440032a0b40032
:10057000f5ff370019ddba008b05e900faff3a00f4
:100580008904e800e184440032a0b40000000600c1
:10059000809fbe00821f78003400f8000000200019
:1005a000a00188000000fa0087c0a900b1118000f6
:1005b000e00f2000808f500002003a001000200061
:1005c000d0408800d0408000e10f500012003a0077
:1005d00002418000b011800080407800a0ae200071
:1005e000020040000148780000418000e10f500007
:1005f00006003a0001418000a0ae2000010040004a
:10060000104078000000fb0030408800004180006e
:100610000000e80000418800014180003040800077
:10062000808f500005003a001a28ef002028ef00c4
:100630000628ef0010002000c04088000080fa006b
:100640003400f9004f0178004f00be000040060062
:10065000809fbe003400f80000002000a001880048
:100660000000fa0087e0a900e0408000e10f5000a0
:100670001a003a00304080000000e00005003a0017
:10068000f0af2000104078000000fb0030408800f0
:100690002028ef0001418000e0af20000100400071
:1006a000104078000000fb00a0118800304080005e
:1006b0000000e90030408800004180000000e800b0
:1006c00000418800304080000000e00003003a0054
:1006d0001c28ef002028ef0097c0a8000080fa0037
:1006e0003400f9004f00be00004006003600f8005c
:1006f000809fbe00829fbe00849fbe00869fbe007a
:100700003400f80000002000a00188000000fa007a
:100710008760a900904080000000e80090408800b9
:1007200090408000e30f5000010034006a0307008e
:100730000080fa003400f9004f03be004f02be00f3
:100740004f01be004f00be003600f9000040060019
:10075000801f78003400f80000002000a00188000d
:100760000000fa0089e0a900b04080000000e80025
:10077000b04088000080fa003400f9004f00780093
:10078000004006003600f800809fbe00829fbe0039
:10079000849fbe00869fbe00881f78003400f8004a
:1007a00000002000a00188000000fa008660a90077
:1007b000a01680004d00de00614060008080fb00dc
:1007c000a040800000f0a7000000ea000000e9005f
:1007d0004f00de00008060000000e0000e003200ec
:1007e00010002000a0408800804080006a00b9000e
:1007f00080007800008f2000008040002257800099
:10080000335780000288be006400400043578000d8
:100810000308780016003700a116800000002200af
:100820000080600000f0a7000000ea000000e9007e
:100830004f00de0080407800a04080000000a20051
:1008400000f0a7000000ea000000e9004f00de0011
:100850000040780000c060000004e00004003200a6
:100860001428ef00804080000000e80080408800ed
:10087000a01680004600de00614060000080fb00a2
:10088000a1408000010060000000e000180032007c
:1008900083408000804080006a00b900000078003a
:1008a000e6004000008f200000804000100078002b
:1008b0000001e8006a18b90080007800608f20000d
:1008c0000080400002087800804080006a00b90083
:1008d00000007800e6004000008f2000008040000b
:1008e00010007800e10f500001003a002de1a8004f
:1008f000a01680004700de00614060000080fb0021
:10090000a1408000010060000000e00023003200f0
:100910006109800000002800008060000000e00005
:10092000010032002de1a900804080006a00b9007a
:1009300000007800e6004000008f200000804000aa
:1009400010007800e10f500014003a008840800049
:10095000b040800064010700000178006a40b900df
:1009600080007800808f200000804000020878001e
:10097000804080006a00b90000007800e800400074
:10098000008f20000080400090007800c00320000d
:10099000808f500001003400610107000080fa00e0
:1009a0003400f9004f0478004f03be004f02be0030
:1009b0004f01be004f00be003600f90000400600a7
:0c09c0000040da000000fe00000005000e
:020000040000fa
:1009cc000000fa000a28ef00260037005040800093
:1009dc006a00b90080007800008f20000080400081
:1009ec008000eb0001087800504080006a00b900dc
:1009fc0080007800208f2000008040008000eb00f9
:100a0c0001087800504080006a00b900800078002e
:100a1c00408f2000008040008000eb00010878002f
:100a2c00504080006a00b90080007800808f200060
:100a3c00008040008000eb000108780050408000ee
:100a4c006a00b90080007800608f200000804000b0
:100a5c008000eb0001087800504080000000e800a6
:100a6c00504088005140800080408000808f5000b2
:100a7c00d6ff35001028ef000080fa0000000600b9
:100a8c000200fa00004f78000e00e80001487800e0
:100a9c000a28ef00e0af2000e1cfb3000148780056
:100aac0000b0200021c0b3000148780010b0200035
:100abc0031c0b3000148780020b0200001c8b30059
:100acc000148780030b020008e00e8001148780012
:100adc0060002000004088000e00e8001040780004
:100aec000000fb0041042000810f50001b0032006d
:100afc0041042000810f500007003c00110420002d
:100b0c00810f50000b00320031042000810f500087
:100b1c000d003200ca00370081042000810f500004
:100b2c006800320091042000810f5000bf00320099
:100b3c00c300370001408000e0af200001004000fe
:100b4c001e487800c700370001408000e0af20004d
:100b5c00010040001e487800c20037003040800081
:100b6c000000e000bc0034000a28ef004d00370004
:100b7c0002408000504080006a00b900800078007c
:100b8c0080822000008040001000780080407800b7
:100b9c00e0af2000020040000148780000408000d7
:100bac000000e800004088000240800050408000b7
:100bbc006a00b900000078008080e8008082200084
:100bcc00008040001000780080407800e0af2000ea
:100bdc000200400001487800004080000000e8005e
:100bec000040880002408000504080006a00b9003c
:100bfc0000007800e400400080822000008040006b
:100c0c001000780080407800e0af20000200400027
:100c1c0001487800004080000000e8000040880097
:100c2c0002408000504080006a00b900000078004b
:100c3c00e800400080822000008040001000780016
:100c4c0080407800e0af20000200400001487800ae
:100c5c00004080000000e800004088000240800056
:100c6c00504080006a00b90000007800e6004000a7
:100c7c0080822000008040001000780080407800c6
:100c8c00e0af2000020040000148780000408000e6
:100c9c000000e80000408800504080000000e800a0
:100cac00504088005140800030408000808f5000c0
:100cbc00afff3500004080000000e90000408800d4
:100ccc0068003700304080000000e0006400340011
:100cdc000a28ef004d003700024080005040800091
:100cec006a00b900800078008082200000804000fb
:100cfc001000780080407800e0af20000200400037
:100d0c0001487800004080000000e80000408800a6
:100d1c0002408000504080006a00b900000078005a
:100d2c008080e80080822000008040001000780065
:100d3c0080407800e0af20000200400001487800bd
:100d4c00004080000000e800004088000240800065
:100d5c00504080006a00b90000007800e4004000b8
:100d6c0080822000008040001000780080407800d5
:100d7c00e0af2000020040000148780000408000f5
:100d8c000000e800004088000240800050408000d5
:100d9c006a00b90000007800e80040008082200062
:100dac00008040001000780080407800e0af200008
:100dbc000200400001487800004080000000e8007c
:100dcc000040880002408000504080006a00b9005a
:100ddc0000007800e6004000808220000080400087
:100dec001000780080407800e0af20000200400046
:100dfc0001487800004080000000e80000408800b6
:100e0c00504080000000e8005040880051408000b5
:100e1c0030408000808f5000afff350000408000d4
:100e2c000000e900004088000e00370001408000ff
:100e3c00e0af2000010040001e4878000900370098
:100e4c0030b020001e487800004080000000e9000f
:100e5c00004088000300370000000000010037004c
:100e6c0000000000004080000000e8000040880006
:100e7c00004080000040780000c0e800804078000e
:100e8c00f0af20000148780000408000bd01070051
:100e9c001040880002408000104080004880de0036
:100eac0080407800e0af200002004000014878004c
:100ebc00004080000000e8000040880002408000f4
:100ecc001040800080407800e0af2000020040001d
:100edc00014878000080fa00000006000200fa00c9
:100eec00000f78001e0078000000e00006003200c1
:100efc00804320009e007800010178001100090059
:100f0c000200d800010037000000eb000080fa005e
:100f1c00000006000000fa00c202a800c202a900ec
:100f2c000080fa00000006000200fa00004f780072
:100f3c000628ef000428ef001e00fb0051042000df
:100f4c00810f50009100320051042000810f50009d
:100f5c0011003c0021042000810f500020003200c1
:100f6c0021042000810f500004003c0011042000db
:100f7c00810f5000150032000701370031042000aa
:100f8c00810f50001b00320041042000810f5000e3
:100f9c00330032000001370071042000810f500033
:100fac008900320071042000810f5000820035004e
:100fbc0081042000810f5000870032009104200032
:100fcc00810f5000d8003200f300370080408000c1
:100fdc00004078009e407800a9fe0700ee00370024
:100fec0077fe07009e40780060c4b300a4fe0700a3
:100ffc00e90037000828ef0010003700404080005f
:10100c006a00b90000007800e6004000008f200064
:10101c000080400010007800e20f50000400340003
:10102c0020408000204088000000e800204088001c
:10103c00404080000000e8004040880041408000b3
:10104c0080408000808f5000ecff350020408000f5
:10105c00004078009e40780089fe0700ce003700e3
:10106c0000af2000104078000000fb0040408800da
:10107c0010af2000104078000000fb00604088009a
:10108c000a28ef0038003700504080006a00b90091
:10109c0080007800008f20000080400090007800d5
:1010ac0040408000808f50002c003a00304080007f
:1010bc00534080006a00b9008000780080822000d4
:1010cc00008140006a18b90080007800008f200071
:1010dc00008040003019780020117800e4004100b5
:1010ec00640040009008780032408000504080003e
:1010fc006a00b90000007800e8004000008f200072
:10110c0000804000900178006a10b90080007800df
:10111c0000832000008040000308780032408000eb
:10112c00504080006a00b90000007800e6004000e2
:10113c00008f200000804000900178006a10b900f8
:10114c0080007800e08220000080400003087800d6
:10115c00304080000000e8003040880050408000a3
:10116c000000e80050408800514080008040800022
:10117c00808f5000c4ff3500304080000040780064
:10118c009e4078003efe070083003700101680005a
:10119c00610060000000e0000200320010168000c8
:1011ac0001003700101680009e40780060c4b30028
:1011bc0033fe0700780037009e40780060c4b3000f
:1011cc002ffe0700740037009e40780070c4b300f7
:1011dc002bfe07007000370000af20001040780095
:1011ec000000fb007040880010af20001040780019
:1011fc000000fb00604088000a28ef004100370027
:10120c00504080006a00b90080007800008f2000f8
:10121c00008040009000780070408000808f50006b
:10122c0035003500504080006a00b900800078001d
:10123c00008f20000080400090007800604080000b
:10124c00808f50002c003c003040800053408000c8
:10125c006a00b90080007800808220000081400084
:10126c006a18b90080007800008f200000804000d0
:10127c003019780020117800e4004100640040002f
:10128c009008780032408000504080006a00b9001d
:10129c0000007800e8004000008f20000080400033
:1012ac00900178006a10b90080007800008320005b
:1012bc0000804000030878003240800050408000dd
:1012cc006a00b90000007800e6004000008f2000a2
:1012dc0000804000900178006a10b900800078000e
:1012ec00e08220000080400003087800304080003d
:1012fc000000e80030408800504080000000e8000a
:10130c00504088005140800080408000808f500009
:10131c00bbff350030408000004078009e407800d4
:10132c00d7fd07001c0037000828ef00110037001c
:10133c00404080006a00b90000007800e8004000de
:10134c00008f20000080400090007800c003200037
:10135c00808f500004003400204080002040880022
:10136c000000e80020408800404080000000e800b9
:10137c00404088004140800080408000808f5000b9
:10138c00ebff350020408000004078009e40780044
:10139c00bbfd07000000000010002000e0408800aa
:1013ac001828ef000628ef0097c0a90087e0a800d6
:1013bc000080fa00000006000000fa001000200077
:1013cc0040408800f003200050408800a00020001e
:1013dc00304088000428ef001028ef00360037005a
:1013ec0080408000214080006d8140006a00b9007f
:1013fc0080007800008f20000080400002087800f8
:10140c0080408000324080006a00b9008000780083
:10141c00208f20000080400002087800804080006f
:10142c00324080006a00b90080007800408f2000b4
:10143c00008040000208780080408000524080000c
:10144c006a00b90080007800808f20000080400086
:10145c000208780080408000414080000101e800d3
:10146c006a00b90080007800608f20000080400086
:10147c000208780030408000650040003040880051
:10148c0080408000e10f500008003a00404080008e
:10149c000000e80040408800a00320005040880075
:1014ac00204080000000e800204088008040800040
:1014bc000000e8008040880080408000e50f50006c
:1014cc00c7ff34000080fa00000006000000fa009c
:1014dc001228ef00405780000000e80040578800b9
:1014ec0041578000b0032000808f5000050034006d
:1014fc000000eb0040578800305780000000e800e7
:10150c003057880031578000b0032000808f500086
:10151c00050034000000eb00305788002057800095
:10152c000000e8002057880020578000f80f50007a
:10153c0002003a000000eb00205788000080fa00ff
:10154c00000006000000fa000000eb0020578800a5
:10155c000000eb00305788000000eb00405788007b
:10156c00e300070094ff07000100370000000000b3
:10157c00c0408000e10f5000fcff3a0073000700f0
:10158c00fbff37000200fa00000f78000228ef0082
:10159c001e28ef0020003700f1408000e0af200053
:1015ac0001004000104078000000fb004800dd0006
:1015bc0030418800f04080000000e800f0408800d6
:1015cc00f04080009e0f500009003200f140800076
:1015dc00e0af200001004000104078000000fb004c
:1015ec003141800001004000304188000300370089
:1015fc00f04080000000e900f040880011408000bd
:10160c00304180000080400010408800f040800095
:10161c000000e800f0408800f04080009e0f500071
:10162c00ddff3500104080000080fa00000006004d
:10163c000000fa000228ef00b0ae20001040780045
:10164c000000fb000080e900204088001e28ef000d
:10165c0021003700f1408000a0ae200001004000c6
:10166c00104078000000fb004800dd00304188008d
:10167c00f04080000000e800f0408800f14080005d
:10168c0020408000808f500009003200f140800023
:10169c00a0ae200001004000104078000000fb00cc
:1016ac0031418000010040003041880003003700c8
:1016bc00f04080000000e900f040880011408000fc
:1016cc00304180000080400010408800f0408000d5
:1016dc000000e800f0408800f140800020408000cd
:1016ec00808f5000dbff3500f1408000a0ae200061
:1016fc0001004000104078000000fb004800dd00b5
:10170c0030418800f04080000000e800a1ae2000cd
:10171c0000804000104078000000fb003141800048
:10172c0001004000304188001140800030418000b1
:10173c00808f500002003a0010002000010037009a
:10174c000000eb000080fa00000006000000fa0028
:10175c00c0ae200010407800e34f500011003a005a
:10176c00d0ae200010407800e24f50000d003a003f
:10177c00afff07000000e00007003200f0ae2000d1
:10178c00104078000000fb001041880010418000e0
:10179c00e5fd07000500370070042000e2fd07009e
:1017ac000200370070042000dffd07000080fa0003
:1017bc00000006000000fa0031e2a9003162a80026
:1017cc0030102000c01188000040240090058800d3
:1017dc0087c0a90097c0a80031e2a8003342a80036
:1017ec0087e0a90097e0a8000080fa00000006003e
:1017fc000000fa009660a80061058000f0ff280048
:10180c0080806000000025000100700060058800e9
:10181c0061e0a8006200a8006260a8000080fa00e5
:10182c00000006000000fa001e21ef00f108800005
:10183c000003200001007000f00888008760a900f8
:10184c0081058000f0ff28008080600000002600e9
:10185c0001007000800588009760a800608929004d
:10186c00d00888001fe1a8000080fa0000000600e4
:10187c000000fa002c21ef0061098000f0fc2f0021
:10188c00008060000040a0006009880089e0a90089
:10189c00d1058000f0ff280080806000000025004a
:1018ac0001007000d005880099e0a8008038210064
:0c18bc00400988000080fa0000000600cf
:020000040000fa
:1018c800ea0a000028000000000000001a080000d2
:1018d8000e0000000000000028080000c2020000fe
:1018e80000000000000800001a00000000000000ce
:0418f80000000000ec
:020000040000fa
:1018fc000000fa00c002a900000c2200901688001b
:10190c00d422ef00baff0700aaff0700c5ff0700ab
:0c191c00d7ff07000080fa000000060062
:020000040000fa
:0200000401f009
:04000000ffffff00ff
:020000040000fa
:0200000401f009
:04000400ffffff00fb
:020000040000fa
:0200000401f009
:04000800ffffff00f7
:020000040000fa
:0200000401f009
:04000c00fbff0000f6
:020000040000fa
:0200000401f009
:04001000bdff000030
:020000040000fa
:0200000401f009
:04001400ffff0000ea
:020000040000fa
:0200000401f009
:04001800ffff0000e6
:020000040000fa
:0200000401f009
:04001c00dfff000002
:00000001FF
