:020000040000fa
:080000000002040000000000f2
:020000040000fa
:0400080050030000a1
:020000040000fa
:04000c00500300009d
:020000040000fa
:040010005003000099
:020000040000fa
:040014005003000095
:020000040000fa
:040018005003000091
:020000040000fa
:04001c00500300008d
:020000040000fa
:040020005003000089
:020000040000fa
:040024005003000085
:020000040000fa
:040028005003000081
:020000040000fa
:04002c00500300007d
:020000040000fa
:040030005003000079
:020000040000fa
:040034005003000075
:020000040000fa
:04003800c8020000fa
:020000040000fa
:04003c00500300006d
:020000040000fa
:040040005003000069
:020000040000fa
:040044005003000065
:020000040000fa
:040048005003000061
:020000040000fa
:04004c00500300005d
:020000040000fa
:040050005003000059
:020000040000fa
:040054005003000055
:020000040000fa
:040058005003000051
:020000040000fa
:04005c00500300004d
:020000040000fa
:040060005003000049
:020000040000fa
:040064005003000045
:020000040000fa
:040068005003000041
:020000040000fa
:04006c00500300003d
:020000040000fa
:040070005003000039
:020000040000fa
:040074005003000035
:020000040000fa
:040078005003000031
:020000040000fa
:04007c00500300002d
:020000040000fa
:040080005003000029
:020000040000fa
:040084005003000025
:020000040000fa
:040088005003000021
:020000040000fa
:04008c00500300001d
:020000040000fa
:040090005003000019
:020000040000fa
:040094005003000015
:020000040000fa
:040098005003000011
:020000040000fa
:04009c00500300000d
:020000040000fa
:0400a0005003000009
:020000040000fa
:0400a4005003000005
:020000040000fa
:0400a8005003000001
:020000040000fa
:0400ac0050030000fd
:020000040000fa
:0400b00050030000f9
:020000040000fa
:0400b40050030000f5
:020000040000fa
:0400b80050030000f1
:020000040000fa
:0400bc0050030000ed
:020000040000fa
:0400c00050030000e9
:020000040000fa
:0400c40050030000e5
:020000040000fa
:0400c80050030000e1
:020000040000fa
:0400cc0050030000dd
:020000040000fa
:0400d00050030000d9
:020000040000fa
:0400d40050030000d5
:020000040000fa
:0400d80050030000d1
:020000040000fa
:0400dc0050030000cd
:020000040000fa
:0400e00050030000c9
:020000040000fa
:0400e40050030000c5
:020000040000fa
:0400e80050030000c1
:020000040000fa
:0400ec0050030000bd
:020000040000fa
:0400f00050030000b9
:020000040000fa
:0400f40050030000b5
:020000040000fa
:0400f80050030000b1
:020000040000fa
:0400fc0050030000ad
:020000040000fa
:0401000050030000a8
:020000040000fa
:0401040050030000a4
:020000040000fa
:0401080050030000a0
:020000040000fa
:04010c00500300009c
:020000040000fa
:040110005003000098
:020000040000fa
:040114005003000094
:020000040000fa
:040118005003000090
:020000040000fa
:04011c00500300008c
:020000040000fa
:040120005003000088
:020000040000fa
:040124005003000084
:020000040000fa
:040128005003000080
:020000040000fa
:04012c00500300007c
:020000040000fa
:040130005003000078
:020000040000fa
:040134005003000074
:020000040000fa
:040138005003000070
:020000040000fa
:04013c00500300006c
:020000040000fa
:040140005003000068
:020000040000fa
:040144005003000064
:020000040000fa
:04020800500300009f
:020000040000fa
:04020c00500300009b
:020000040000fa
:040210005003000097
:020000040000fa
:040214005003000093
:020000040000fa
:04021800500300008f
:020000040000fa
:04021c00500300008b
:020000040000fa
:040220005003000087
:020000040000fa
:040224005003000083
:020000040000fa
:04022800500300007f
:020000040000fa
:04022c00500300007b
:020000040000fa
:040230005003000077
:020000040000fa
:040234005003000073
:020000040000fa
:04023800c8020000f8
:020000040000fa
:04023c00500300006b
:020000040000fa
:040240005003000067
:020000040000fa
:040244005003000063
:020000040000fa
:04024800500300005f
:020000040000fa
:04024c00500300005b
:020000040000fa
:040250005003000057
:020000040000fa
:040254005003000053
:020000040000fa
:04025800500300004f
:020000040000fa
:04025c00500300004b
:020000040000fa
:040260005003000047
:020000040000fa
:040264005003000043
:020000040000fa
:04026800500300003f
:020000040000fa
:04026c00500300003b
:020000040000fa
:040270005003000037
:020000040000fa
:040274005003000033
:020000040000fa
:04027800500300002f
:020000040000fa
:04027c00500300002b
:020000040000fa
:040280005003000027
:020000040000fa
:040284005003000023
:020000040000fa
:04028800500300001f
:020000040000fa
:04028c00500300001b
:020000040000fa
:040290005003000017
:020000040000fa
:040294005003000013
:020000040000fa
:04029800500300000f
:020000040000fa
:04029c00500300000b
:020000040000fa
:0402a0005003000007
:020000040000fa
:0402a4005003000003
:020000040000fa
:0402a80050030000ff
:020000040000fa
:0402ac0050030000fb
:020000040000fa
:0402b00050030000f7
:020000040000fa
:0402b40050030000f3
:020000040000fa
:0402b80050030000ef
:020000040000fa
:0402bc0050030000eb
:020000040000fa
:0402c00050030000e7
:020000040000fa
:0402c40050030000e3
:020000040000fa
:0402c80050030000df
:020000040000fa
:0402cc0050030000db
:020000040000fa
:0402d00050030000d7
:020000040000fa
:0402d40050030000d3
:020000040000fa
:0402d80050030000cf
:020000040000fa
:0402dc0050030000cb
:020000040000fa
:0402e00050030000c7
:020000040000fa
:0402e40050030000c3
:020000040000fa
:0402e80050030000bf
:020000040000fa
:0402ec0050030000bb
:020000040000fa
:0402f00050030000b7
:020000040000fa
:0402f40050030000b3
:020000040000fa
:0402f80050030000af
:020000040000fa
:0402fc0050030000ab
:020000040000fa
:0403000050030000a6
:020000040000fa
:0403040050030000a2
:020000040000fa
:04030800500300009e
:020000040000fa
:04030c00500300009a
:020000040000fa
:040310005003000096
:020000040000fa
:040314005003000092
:020000040000fa
:04031800500300008e
:020000040000fa
:04031c00500300008a
:020000040000fa
:040320005003000086
:020000040000fa
:040324005003000082
:020000040000fa
:04032800500300007e
:020000040000fa
:04032c00500300007a
:020000040000fa
:040330005003000076
:020000040000fa
:040334005003000072
:020000040000fa
:04033800500300006e
:020000040000fa
:04033c00500300006a
:020000040000fa
:040340005003000066
:020000040000fa
:040344005003000062
:020000040000fa
:100400006f8220000efe27000e0188000000000011
:10041000000020000000e000020032000001200087
:1004200020028800140007009f0007000000e00081
:1004300003003a0060532000010020000200370052
:100440000000200001002000810f70000100320038
:1004500014000700000020000000e000020032004d
:100460000000020000000000520402000000000032
:100470000040da000000fe004440a9000000200017
:100480000000e0000300320000002000a00188000e
:100490004440a800000006008a1f78008b1f7800e7
:1004a0000000060091018800800478000000eb0045
:1004b0001a003700e284440032a0b4009905ba0063
:1004c000e284440032a0b4009906ba00e2844400f9
:1004d00032a0b4000006eb00476fde00fd07b2005b
:1004e000636ce10003003a00ebff07000000eb0043
:1004f0000a003700606ce10004003a00005deb0088
:100500008b05e900fdff3e00040037006168e10053
:10051000010032000086eb000b00070019c7ba008b
:100520001905ba000e04e00003003a000a00e000da
:10053000e0ff3a0000000600fe07b2009e018800be
:100540008a047800f5ff3700395dba008b05e900b1
:100550000c003200295dba008b05e900080032006a
:100560000c00e00003003a00e284440032a0b40032
:10057000f5ff370019ddba008b05e900faff3a00f4
:100580008904e800e184440032a0b40000000600c1
:10059000809fbe00821f78003400f8000000200019
:1005a000a00188000000fa008480a90010408000ab
:1005b0000000e00019003a000428ef0010003700a6
:1005c00020408000214080000181400001ff270081
:1005d000810041001101780080004000608120000e
:1005e0000080400002087800204080000000e80001
:1005f00020408800204080000000e8002040880063
:1006000020408000e70f5000edff3400a040800044
:100610000000e800a040880019003700100020000a
:1006200020408800100037002040800021408000da
:100630000181400001ff2700810041001101780085
:1006400080004000608120000080400002087800a7
:10065000204080000000e80020408800204080000a
:100660000000e8002040880020408000e70f500094
:10067000edff3400a04080000000e800a0408800aa
:10068000104080000000a200104088000080fa00a6
:100690003400f9004f0178004f00be000040060012
:0c06a0000040da000000fe000000050031
:020000040000fa
:1006ac000000fa000228ef001428ef000628ef00e3
:1006bc000828ef000a28ef000c28ef000e28ef00a6
:1006cc001028ef000080fa00000006000200fa007b
:1006dc000000eb00000f78001e0078008000400046
:1006ec0060812000008040001000780030408800bd
:1006fc001e007800800040006081200000804000d7
:10070c0010007800504088000e28ef000000eb002d
:10071c00000f7800220037001e0078008000400097
:10072c006081200000804000900078003040800004
:10073c00808f500007003e001e00780080004000b3
:10074c00608120000080400010007800304088005c
:10075c00060037001e0078008000400060812000f9
:10076c000080400010007800504088001e00780087
:10077c0080004000608120000080400090007800e4
:10078c007040800000804000704088007040800005
:10079c004200de00704088001e0fe8001e0fe800cb
:1007ac001e007800e70f5000dbff36000080fa00d7
:1007bc00000006000200fa0010002000000f780074
:1007cc001e00780080004000608120000080400006
:1007dc0010007800404088001e0078008000400027
:1007ec00608120000080400010007800604088008c
:1007fc0010002000000f7800220037001e00780047
:10080c008000400060812000008040009000780053
:10081c0040408000808f500007003e001e00780092
:10082c0080004000608120000080400010007800b3
:10083c0040408800060037001e0078008000400011
:10084c00608120000080400010007800604088002b
:10085c001e00780080004000608120000080400075
:10086c00900078008040800000804000804088002c
:10087c00804080004200de00804088001e0fe800af
:10088c001e0fe8001e007800e70f5000dbff36005b
:10089c000080fa00000006000000fa0080ff07004c
:1008ac00690007000100370000000000a040800034
:1008bc00e20f500003003a001428ef0083ff0700fa
:1008cc00bcff0700a016800000408800014080009b
:1008dc0000042000008060000000e00007003200ef
:1008ec00d222ef0050408000a016880060408000ab
:1008fc00a01688000080eb00901688000140800054
:10090c0000082000008060000000e00007003200ba
:10091c00d222ef0070408000a0168800804080003a
:10092c00a01688000080eb00901688000140800023
:10093c0000002200008060000000e000daff3200be
:10094c00d222ef0030408000a0168800404080008a
:10095c00a01688000080eb0090168800d3ff3700ab
:10096c000000fa000080eb00901688000080fa006e
:10097c00000006000000fa00c0ff2f00601988007c
:10098c0001198000f0cf2f00008060000019880052
:10099c0001198000000e2000010070000019880071
:1009ac002043a8002143a8002343a80030002000c6
:1009bc00801988002e23ef00f0c3b30024e3b700a6
:1009cc0021198000f00f2e00008060000090a00024
:1009dc00201988004119800000fe2f000080600063
:1009ec004019880021e3a8000080fa0000000600ee
:1009fc000000fa00111c800000f82f00008060003d
:100a0c00d000b300101c880000302000401c88006f
:100a1c00007f2000201c880070002000501c8800e3
:100a2c008480a9009480a800011c8000c0ff2f00c6
:100a3c00008060000010a000001c880081e3a8006a
:100a4c000080fa00000006000000fa00c4ff070056
:100a5c00c8ff0700e6ff07000080fa000000060050
:020000040000fa
:100a6c001608000010000000000000000008000044
:100a7c001600000000000000f07f000010000000d5
:080a8c00000000000000000062
:00000001FF
