:020000040000fa
:080000000002040000000000f2
:020000040000fa
:04000800ac03000045
:020000040000fa
:04000c00ac03000041
:020000040000fa
:04001000ac0300003d
:020000040000fa
:04001400ac03000039
:020000040000fa
:04001800ac03000035
:020000040000fa
:04001c00ac03000031
:020000040000fa
:04002000ac0300002d
:020000040000fa
:04002400ac03000029
:020000040000fa
:04002800ac03000025
:020000040000fa
:04002c00ac03000021
:020000040000fa
:04003000ac0300001d
:020000040000fa
:04003400ac03000019
:020000040000fa
:04003800ac03000015
:020000040000fa
:04003c00ac03000011
:020000040000fa
:04004000ac0300000d
:020000040000fa
:04004400ac03000009
:020000040000fa
:04004800ac03000005
:020000040000fa
:04004c00ac03000001
:020000040000fa
:04005000ac030000fd
:020000040000fa
:04005400ac030000f9
:020000040000fa
:04005800ac030000f5
:020000040000fa
:04005c00ac030000f1
:020000040000fa
:04006000ac030000ed
:020000040000fa
:04006400ac030000e9
:020000040000fa
:04006800ac030000e5
:020000040000fa
:04006c00ac030000e1
:020000040000fa
:04007000ac030000dd
:020000040000fa
:04007400ac030000d9
:020000040000fa
:04007800ac030000d5
:020000040000fa
:04007c00ac030000d1
:020000040000fa
:04008000ac030000cd
:020000040000fa
:04008400ac030000c9
:020000040000fa
:04008800ac030000c5
:020000040000fa
:04008c00ac030000c1
:020000040000fa
:04009000ac030000bd
:020000040000fa
:0400940070030000f5
:020000040000fa
:04009800ac030000b5
:020000040000fa
:04009c00ac030000b1
:020000040000fa
:0400a000c802000092
:020000040000fa
:0400a4002e03000027
:020000040000fa
:0400a800ac030000a5
:020000040000fa
:0400ac00ac030000a1
:020000040000fa
:0400b000ac0300009d
:020000040000fa
:0400b400ac03000099
:020000040000fa
:0400b800ac03000095
:020000040000fa
:0400bc00ac03000091
:020000040000fa
:0400c000ac0300008d
:020000040000fa
:0400c400ac03000089
:020000040000fa
:0400c800ac03000085
:020000040000fa
:0400cc00ac03000081
:020000040000fa
:0400d000ac0300007d
:020000040000fa
:0400d400ac03000079
:020000040000fa
:0400d800ac03000075
:020000040000fa
:0400dc00ac03000071
:020000040000fa
:0400e000ac0300006d
:020000040000fa
:0400e400960300007f
:020000040000fa
:0400e800ac03000065
:020000040000fa
:0400ec00ac03000061
:020000040000fa
:0400f000ac0300005d
:020000040000fa
:0400f400ac03000059
:020000040000fa
:0400f800ac03000055
:020000040000fa
:0400fc00ac03000051
:020000040000fa
:04010000ac0300004c
:020000040000fa
:04010400ac03000048
:020000040000fa
:04010800ac03000044
:020000040000fa
:04010c00ac03000040
:020000040000fa
:04011000ac0300003c
:020000040000fa
:04011400ac03000038
:020000040000fa
:04011800ac03000034
:020000040000fa
:04011c00ac03000030
:020000040000fa
:04012000ac0300002c
:020000040000fa
:04012400ac03000028
:020000040000fa
:04012800ac03000024
:020000040000fa
:04012c00ac03000020
:020000040000fa
:04013000ac0300001c
:020000040000fa
:04013400ac03000018
:020000040000fa
:04013800ac03000014
:020000040000fa
:04013c00ac03000010
:020000040000fa
:04014000ac0300000c
:020000040000fa
:04014400ac03000008
:020000040000fa
:04020800ac03000043
:020000040000fa
:04020c00ac0300003f
:020000040000fa
:04021000ac0300003b
:020000040000fa
:04021400ac03000037
:020000040000fa
:04021800ac03000033
:020000040000fa
:04021c00ac0300002f
:020000040000fa
:04022000ac0300002b
:020000040000fa
:04022400ac03000027
:020000040000fa
:04022800ac03000023
:020000040000fa
:04022c00ac0300001f
:020000040000fa
:04023000ac0300001b
:020000040000fa
:04023400ac03000017
:020000040000fa
:04023800ac03000013
:020000040000fa
:04023c00ac0300000f
:020000040000fa
:04024000ac0300000b
:020000040000fa
:04024400ac03000007
:020000040000fa
:04024800ac03000003
:020000040000fa
:04024c00ac030000ff
:020000040000fa
:04025000ac030000fb
:020000040000fa
:04025400ac030000f7
:020000040000fa
:04025800ac030000f3
:020000040000fa
:04025c00ac030000ef
:020000040000fa
:04026000ac030000eb
:020000040000fa
:04026400ac030000e7
:020000040000fa
:04026800ac030000e3
:020000040000fa
:04026c00ac030000df
:020000040000fa
:04027000ac030000db
:020000040000fa
:04027400ac030000d7
:020000040000fa
:04027800ac030000d3
:020000040000fa
:04027c00ac030000cf
:020000040000fa
:04028000ac030000cb
:020000040000fa
:04028400ac030000c7
:020000040000fa
:04028800ac030000c3
:020000040000fa
:04028c00ac030000bf
:020000040000fa
:04029000ac030000bb
:020000040000fa
:0402940070030000f3
:020000040000fa
:04029800ac030000b3
:020000040000fa
:04029c00ac030000af
:020000040000fa
:0402a000c802000090
:020000040000fa
:0402a4002e03000025
:020000040000fa
:0402a800ac030000a3
:020000040000fa
:0402ac00ac0300009f
:020000040000fa
:0402b000ac0300009b
:020000040000fa
:0402b400ac03000097
:020000040000fa
:0402b800ac03000093
:020000040000fa
:0402bc00ac0300008f
:020000040000fa
:0402c000ac0300008b
:020000040000fa
:0402c400ac03000087
:020000040000fa
:0402c800ac03000083
:020000040000fa
:0402cc00ac0300007f
:020000040000fa
:0402d000ac0300007b
:020000040000fa
:0402d400ac03000077
:020000040000fa
:0402d800ac03000073
:020000040000fa
:0402dc00ac0300006f
:020000040000fa
:0402e000ac0300006b
:020000040000fa
:0402e400960300007d
:020000040000fa
:0402e800ac03000063
:020000040000fa
:0402ec00ac0300005f
:020000040000fa
:0402f000ac0300005b
:020000040000fa
:0402f400ac03000057
:020000040000fa
:0402f800ac03000053
:020000040000fa
:0402fc00ac0300004f
:020000040000fa
:04030000ac0300004a
:020000040000fa
:04030400ac03000046
:020000040000fa
:04030800ac03000042
:020000040000fa
:04030c00ac0300003e
:020000040000fa
:04031000ac0300003a
:020000040000fa
:04031400ac03000036
:020000040000fa
:04031800ac03000032
:020000040000fa
:04031c00ac0300002e
:020000040000fa
:04032000ac0300002a
:020000040000fa
:04032400ac03000026
:020000040000fa
:04032800ac03000022
:020000040000fa
:04032c00ac0300001e
:020000040000fa
:04033000ac0300001a
:020000040000fa
:04033400ac03000016
:020000040000fa
:04033800ac03000012
:020000040000fa
:04033c00ac0300000e
:020000040000fa
:04034000ac0300000a
:020000040000fa
:04034400ac03000006
:020000040000fa
:10040000ef8120000eff27000e0188000000000091
:10041000000020000000e000020032000001200087
:100420002002880014000700cd0007000000e00053
:1004300003003a00c04720000100200002003700fe
:100440000000200001002000810f70000100320038
:1004500014000700000020000000e000020032004d
:100460000000020000000000ec0302000000000099
:100470000040da000000fe004440a9000000200017
:100480000000e0000300320000002000a00188000e
:100490004440a800000006008a1f78008b1f7800e7
:1004a0000000060091018800800478000000eb0045
:1004b0001a003700e284440032a0b4009905ba0063
:1004c000e284440032a0b4009906ba00e2844400f9
:1004d00032a0b4000006eb00476fde00fd07b2005b
:1004e000636ce10003003a00ebff07000000eb0043
:1004f0000a003700606ce10004003a00005deb0088
:100500008b05e900fdff3e00040037006168e10053
:10051000010032000086eb000b00070019c7ba008b
:100520001905ba000e04e00003003a000a00e000da
:10053000e0ff3a0000000600fe07b2009e018800be
:100540008a047800f5ff3700395dba008b05e900b1
:100550000c003200295dba008b05e900080032006a
:100560000c00e00003003a00e284440032a0b40032
:10057000f5ff370019ddba008b05e900faff3a00f4
:100580008904e800e184440032a0b40000000600c1
:10059000809fbe00821f78003400f8000000200019
:1005a000a00188000000fa0087c0a9002040800058
:1005b0000000e00024003a00104080000000e0004d
:1005c0000a00320000408000b11180000101780073
:1005d00080004000e0802000008040000208780099
:1005e000004080000000e8000040880010408000cb
:1005f0000000e0000c003a00b011800010408800bc
:10060000004080001140800001017800800040001f
:10061000e080200000804000020878000040800058
:100620000000e80000408800014080001040800089
:10063000808f500004003a001fe1a8001421ef0051
:1006400010002000204088000080fa003400f900eb
:100650004f0178004f00be0000400600809fbe00a2
:100660003400f80000002000a00188000000fa001b
:1006700087e0a900304080000000e00014003a004c
:10068000104080000000e0000c00320000408000bc
:1006900080004000e08020000080400010007800d2
:1006a000a0118800004080000000e80000408800a1
:1006b000104080000000e9001040880010408000d9
:1006c0000000e00002003a001000200030408800e6
:1006d0000080fa003400f9004f00be000040060020
:1006e000801f78003400f80000002000a00188007e
:1006f0000000fa008760a900604080000000e80068
:100700006040880060408000e40f500003003a0021
:100710000028ef000c28ef0087e0a8000080fa0016
:100720003400f9004f007800004006003400f80063
:10073000881f780008002000a80188004f04780076
:100740000000fa0089e0a9002de1a9000080fa006c
:100750003400f900004006000040da000000fe000e
:040760000000050090
:020000040000fa
:100764000000fa000c28ef000ac8bf000040e800af
:100774000ae8b700a180200091407800b0c3b3001c
:1007840080cf5000040036000a68ef0009c8bf009b
:100794000040e80009e8b70091802000914078000b
:1007a400b0c3b30080cf5000040036000968ef00e6
:1007b40008c8bf000040e80008e8b70008c8bf0048
:1007c400f84f500001003a000868ef000080fa007a
:1007d400000006000000fa00530007000100370083
:1007e4000000000060408000e30f5000fcff340074
:1007f400dbff0700fbff37000000fa001e21ef00bb
:10080400f10880000003200001007000f008880057
:100814008760a90081058000f0ff280080806000c7
:100824000000260001007000800588009760a80081
:1008340000c42900d00888001fe1a9000080fa0044
:10084400000006000000fa002c21ef00610980007e
:1008540000032000010070006009880089e0a900fd
:10086400d1058000f0ff2800808060000000250092
:1008740001007000d005880099e0a8002821ef004d
:100884002de1a8000080fa00000006000000fa0034
:1008940031e2a8003162a8003062a9008111800011
:1008a40090ff2f0000806000801188003002a900b2
:1008b4003262a90091118000f0f32f0000806000e3
:1008c4009011880010082000c01188000040240006
:1008d4009005880087c0a90097c0a80031e2a8004d
:1008e4003342a80087e0a90097e0a8000080fa003e
:0408f40000000600fa
:020000040000fa
:1008f8000e080000100000000000000000080000c2
:1009080008000000000000000808000004000000c3
:10091800000000000c0800000200000000000000b9
:0409280000000000cb
:020000040000fa
:10092c000000fa0008c8bf0009c8bf000a68ef0041
:10093c00d4ff0700aeff07000080fa00000006009d
:020000040000fa
:0200000401f009
:04000000ffffff00ff
:020000040000fa
:0200000401f009
:04000400ffffff00fb
:020000040000fa
:0200000401f009
:04000800ffffff00f7
:020000040000fa
:0200000401f009
:04000c00fbff0000f6
:020000040000fa
:0200000401f009
:04001000bdff000030
:020000040000fa
:0200000401f009
:04001400ffff0000ea
:020000040000fa
:0200000401f009
:04001800ffff0000e6
:020000040000fa
:0200000401f009
:04001c00dfff000002
:00000001FF
