:020000040000fa
:080000000002040000000000f2
:020000040000fa
:0400080022030000cf
:020000040000fa
:04000c0022030000cb
:020000040000fa
:0400100022030000c7
:020000040000fa
:0400140022030000c3
:020000040000fa
:0400180022030000bf
:020000040000fa
:04001c0022030000bb
:020000040000fa
:0400200022030000b7
:020000040000fa
:0400240022030000b3
:020000040000fa
:04002800c80200000a
:020000040000fa
:04002c0022030000ab
:020000040000fa
:0400300022030000a7
:020000040000fa
:04003400f4020000d2
:020000040000fa
:04003800220300009f
:020000040000fa
:04003c00220300009b
:020000040000fa
:040040002203000097
:020000040000fa
:040044002203000093
:020000040000fa
:04004800220300008f
:020000040000fa
:04004c00220300008b
:020000040000fa
:040050002203000087
:020000040000fa
:040054002203000083
:020000040000fa
:04005800220300007f
:020000040000fa
:04005c00220300007b
:020000040000fa
:040060002203000077
:020000040000fa
:040064002203000073
:020000040000fa
:04006800220300006f
:020000040000fa
:04006c00220300006b
:020000040000fa
:040070002203000067
:020000040000fa
:040074002203000063
:020000040000fa
:04007800220300005f
:020000040000fa
:04007c00220300005b
:020000040000fa
:040080002203000057
:020000040000fa
:040084002203000053
:020000040000fa
:04008800220300004f
:020000040000fa
:04008c00220300004b
:020000040000fa
:040090002203000047
:020000040000fa
:040094002203000043
:020000040000fa
:04009800220300003f
:020000040000fa
:04009c00220300003b
:020000040000fa
:0400a0002203000037
:020000040000fa
:0400a4002203000033
:020000040000fa
:0400a800220300002f
:020000040000fa
:0400ac00220300002b
:020000040000fa
:0400b0002203000027
:020000040000fa
:0400b4002203000023
:020000040000fa
:0400b800220300001f
:020000040000fa
:0400bc00220300001b
:020000040000fa
:0400c0002203000017
:020000040000fa
:0400c4002203000013
:020000040000fa
:0400c800220300000f
:020000040000fa
:0400cc00220300000b
:020000040000fa
:0400d0002203000007
:020000040000fa
:0400d4002203000003
:020000040000fa
:0400d80022030000ff
:020000040000fa
:0400dc0022030000fb
:020000040000fa
:0400e00022030000f7
:020000040000fa
:0400e40022030000f3
:020000040000fa
:0400e80022030000ef
:020000040000fa
:0400ec0022030000eb
:020000040000fa
:0400f00022030000e7
:020000040000fa
:0400f40022030000e3
:020000040000fa
:0400f80022030000df
:020000040000fa
:0400fc0022030000db
:020000040000fa
:0401000022030000d6
:020000040000fa
:0401040022030000d2
:020000040000fa
:0401080022030000ce
:020000040000fa
:04010c0022030000ca
:020000040000fa
:0401100022030000c6
:020000040000fa
:0401140022030000c2
:020000040000fa
:0401180022030000be
:020000040000fa
:04011c0022030000ba
:020000040000fa
:0401200022030000b6
:020000040000fa
:0401240022030000b2
:020000040000fa
:0401280022030000ae
:020000040000fa
:04012c0022030000aa
:020000040000fa
:0401300022030000a6
:020000040000fa
:0401340022030000a2
:020000040000fa
:04013800220300009e
:020000040000fa
:04013c00220300009a
:020000040000fa
:040140002203000096
:020000040000fa
:040144002203000092
:020000040000fa
:0402080022030000cd
:020000040000fa
:04020c0022030000c9
:020000040000fa
:0402100022030000c5
:020000040000fa
:0402140022030000c1
:020000040000fa
:0402180022030000bd
:020000040000fa
:04021c0022030000b9
:020000040000fa
:0402200022030000b5
:020000040000fa
:0402240022030000b1
:020000040000fa
:04022800c802000008
:020000040000fa
:04022c0022030000a9
:020000040000fa
:0402300022030000a5
:020000040000fa
:04023400f4020000d0
:020000040000fa
:04023800220300009d
:020000040000fa
:04023c002203000099
:020000040000fa
:040240002203000095
:020000040000fa
:040244002203000091
:020000040000fa
:04024800220300008d
:020000040000fa
:04024c002203000089
:020000040000fa
:040250002203000085
:020000040000fa
:040254002203000081
:020000040000fa
:04025800220300007d
:020000040000fa
:04025c002203000079
:020000040000fa
:040260002203000075
:020000040000fa
:040264002203000071
:020000040000fa
:04026800220300006d
:020000040000fa
:04026c002203000069
:020000040000fa
:040270002203000065
:020000040000fa
:040274002203000061
:020000040000fa
:04027800220300005d
:020000040000fa
:04027c002203000059
:020000040000fa
:040280002203000055
:020000040000fa
:040284002203000051
:020000040000fa
:04028800220300004d
:020000040000fa
:04028c002203000049
:020000040000fa
:040290002203000045
:020000040000fa
:040294002203000041
:020000040000fa
:04029800220300003d
:020000040000fa
:04029c002203000039
:020000040000fa
:0402a0002203000035
:020000040000fa
:0402a4002203000031
:020000040000fa
:0402a800220300002d
:020000040000fa
:0402ac002203000029
:020000040000fa
:0402b0002203000025
:020000040000fa
:0402b4002203000021
:020000040000fa
:0402b800220300001d
:020000040000fa
:0402bc002203000019
:020000040000fa
:0402c0002203000015
:020000040000fa
:0402c4002203000011
:020000040000fa
:0402c800220300000d
:020000040000fa
:0402cc002203000009
:020000040000fa
:0402d0002203000005
:020000040000fa
:0402d4002203000001
:020000040000fa
:0402d80022030000fd
:020000040000fa
:0402dc0022030000f9
:020000040000fa
:0402e00022030000f5
:020000040000fa
:0402e40022030000f1
:020000040000fa
:0402e80022030000ed
:020000040000fa
:0402ec0022030000e9
:020000040000fa
:0402f00022030000e5
:020000040000fa
:0402f40022030000e1
:020000040000fa
:0402f80022030000dd
:020000040000fa
:0402fc0022030000d9
:020000040000fa
:0403000022030000d4
:020000040000fa
:0403040022030000d0
:020000040000fa
:0403080022030000cc
:020000040000fa
:04030c0022030000c8
:020000040000fa
:0403100022030000c4
:020000040000fa
:0403140022030000c0
:020000040000fa
:0403180022030000bc
:020000040000fa
:04031c0022030000b8
:020000040000fa
:0403200022030000b4
:020000040000fa
:0403240022030000b0
:020000040000fa
:0403280022030000ac
:020000040000fa
:04032c0022030000a8
:020000040000fa
:0403300022030000a4
:020000040000fa
:0403340022030000a0
:020000040000fa
:04033800220300009c
:020000040000fa
:04033c002203000098
:020000040000fa
:040340002203000094
:020000040000fa
:040344002203000090
:020000040000fa
:10040000ef8120000eff27000e0188000000000091
:10041000000020000000e000020032000001200087
:100420002002880014000700880007000000e00098
:1004300003003a00004220000100200002003700c3
:100440000000200001002000810f70000100320038
:1004500014000700000020000000e000020032004d
:100460000000020000000000fe0302000000000087
:100470000040da000000fe004440a9000000200017
:100480000000e0000300320000002000a00188000e
:100490004440a800000006008a1f78008b1f7800e7
:1004a0000000060091018800800478000000eb0045
:1004b0001a003700e284440032a0b4009905ba0063
:1004c000e284440032a0b4009906ba00e2844400f9
:1004d00032a0b4000006eb00476fde00fd07b2005b
:1004e000636ce10003003a00ebff07000000eb0043
:1004f0000a003700606ce10004003a00005deb0088
:100500008b05e900fdff3e00040037006168e10053
:10051000010032000086eb000b00070019c7ba008b
:100520001905ba000e04e00003003a000a00e000da
:10053000e0ff3a0000000600fe07b2009e018800be
:100540008a047800f5ff3700395dba008b05e900b1
:100550000c003200295dba008b05e900080032006a
:100560000c00e00003003a00e284440032a0b40032
:10057000f5ff370019ddba008b05e900faff3a00f4
:100580008904e800e184440032a0b40000000600c1
:100590003600f800809fbe00829fbe00849fbe0090
:1005a000869fbe003400f80000002000a0018800f3
:1005b0000000fa008400a900504080000000e8001c
:1005c00050408800220007000080fa003400f90043
:1005d0004f03be004f02be004f01be004f00be00e1
:1005e0003600f90000400600809fbe003400f8008d
:1005f00000002000a00188000000fa008460a9002b
:10060000404080000000e80040408800304080000a
:100610000000e00007003a0011088000f07c200094
:10062000808f500003003e00100880000000400052
:10063000100888000080fa003400f9004f00be0066
:10064000004006000040da000000fe000000050047
:020000040000fa
:100650000000fa0010168000604088000040800012
:10066000e90f5000010034000028ef000240800034
:100670000cc8bf0080407800e080200002004000ed
:1006800001487800004080000000e8000040880039
:1006900010002000304088000080fa0000000600b2
:1006a0000000fa001600370020408000e90f5000db
:1006b000010034000428ef0010408000e40f5000d7
:1006c000010034000228ef00124080002140800029
:1006d000e0802000010040009040780080812000f0
:1006e0000200400001487800104080000000e8004f
:1006f00010408800204080000000e8002040880072
:100700002140800000408000808f5000e6ff3a00ca
:10071000401f2000100888000628ef000080fa0023
:10072000000006000000fa000021ef002108800010
:10073000f0fc2f00008060000040a000200888002e
:100740008460a9000421a90021058000f0ff280091
:1007500080806000000025000100700020058800f6
:100760009460a800401f20001008880005e1a80040
:100770000080fa00000006000000fa008400a900d2
:100780002105800080ff2f00008060005000b30032
:10079000200588009400a8008200a8000080fa00cc
:1007a000000006000000fa000080eb0060198800dd
:1007b0000080eb00501988000080eb00601b88006f
:1007c0000080eb00001688000080eb0020168800f7
:1007d000e9ff0700d3ff07000080fa0000000600d1
:1007e0000000fa000628ef000428ef000028ef00c0
:1007f0000228ef000080fa00000006000000fa0066
:10080000f7ff0700e7ff07000100370000000000c6
:1008100040408000e90f5000040034005040800048
:10082000201688000828ef000a28ef0030408000da
:10083000e10f5000f5ff3a0099ff0700f4ff370081
:020000040000fa
:10084000000800000c000000000000000e0800007e
:1008500010000000000000000c0800000200000072
:08086000000000000000000090
:00000001FF
